:020000040800F2
:100000000000032021060008791900087B19000868
:100010007D1900087F190008811900080000000000
:10002000000000000000000000000000517B0008FC
:100030008319000800000000E17B00086D740008CF
:1000400071060008710600087106000871060008B4
:1000500071060008710600087106000871060008A4
:100060007106000871060008710600087106000894
:100070007106000871060008710600087106000884
:100080007106000871060008710600087106000874
:10009000710600087106000871060008851900083D
:1000A000710600088D190008710600087106000825
:1000B0007106000871060008710600087106000844
:1000C0007106000871060008710600087106000834
:1000D0007106000871060008710600087106000824
:1000E00099190008710600087106000871060008D9
:1000F0007106000871060008710600087106000804
:1001000071060008710600087106000871060008F3
:100110007106000871060008A119000871060008A0
:10012000AD19000871060008710600087106000884
:1001300071060008710600087106000871060008C3
:1001400071060008710600087106000871060008B3
:1001500071060008710600087106000871060008A3
:100160007106000871060008710600087106000893
:100170007106000871060008710600080000000002
:100180007106000871060008710600087106000873
:100190007106000871060008710600087106000863
:0C01A000B919000871060008C519000814
:1001B00010B5054C237833B9044B13B10448AFF3A1
:1001C00000800123237010BDA00300200000000068
:1001D000F041020808B5034B1BB103490348AFF3D4
:1001E000008008BD00000000A4030020F0410208C8
:1001F00001F0FF01102A2BDB10F0070F08D010F8D8
:10020000013B013A8B422DD010F0070F42B3F6D1DB
:10021000F0B441EA012141EA014122F007047FF0F4
:1002200000070023F0E80256083C85EA010586EA4B
:10023000010685FA47F5A3FA87F586FA47F6A5FA87
:1002400087F68EB9EED1F0BC01F0FF0102F0070293
:1002500032B110F8013B013A83EA010313B1F8D13E
:100260000020704701387047002D06BF354603381F
:10027000073815F0010F07D1013015F4807F02BF58
:10028000013015F4C03F0130F0BC0138704700BFA9
:100290007BB972B90029BEBF00204FF0004106E0D3
:1002A00008BF00281CBF6FF000414FF0FF3000F086
:1002B000B5B9ADF1080C6DE904CE002909DB002BBE
:1002C0001ADB00F04DF8DDF804E0DDE9022304B0AC
:1002D0007047404261EB4101002B1BDB00F040F80E
:1002E000DDF804E0DDE9022304B0404261EB4101A6
:1002F000524263EB43037047524263EB430300F007
:100300002FF8DDF804E0DDE9022304B0404261EBA0
:1003100041017047524263EB430300F021F8DDF8DE
:1003200004E0DDE9022304B0524263EB430370476B
:1003300053B94AB9002908BF00281CBF4FF0FF314C
:100340004FF0FF3000F06AB9ADF1080C6DE904CE52
:1003500000F006F8DDF804E0DDE9022304B07047A0
:100360002DE9F047089D0C46002B4ED194468C4554
:100370008646B2FA82F262D94AB1C2F120039140B4
:1003800020FA03F30CFA02FC194300FA02FE4FEACA
:100390001C471FFA8CF6B1FBF7F44FEA1E4307FB2C
:1003A000141143EA014304FB06F199420AD91CEBFC
:1003B000030304F1FF3080F01281994240F20F8173
:1003C000023C6344591A1FFA8EF3B1FBF7F007FBA6
:1003D000101143EA014300FB06F69E420AD91CEBCA
:1003E000030300F1FF3180F0FC809E4240F2F9806F
:1003F000634402389B1B40EA044000211DB1D340F6
:100400000022C5E90032BDE8F0878B4205D90DB165
:10041000C5E9000100210846F5E7B3FA83F1002998
:1004200046D1A34202D39042C0F0F080861A64EB1A
:1004300003030120002DE6D0C5E90063E3E7002AAD
:1004400040F09080A1EB0C044FEA1C481FFA8CF797
:100450000121B4FBF8F64FEA1E4308FB164443EAB9
:10046000044307FB06F0984208D91CEB030306F18E
:10047000FF3402D2984200F2CD8026461C1A1FFAA1
:100480008EF3B4FBF8F008FB104443EA044300FB8E
:1004900007F79F4208D91CEB030300F1FF3402D297
:1004A0009F4200F2B0802046DB1B40EA0640A5E7F1
:1004B000C1F120068B4022FA06F71F4320FA06FC02
:1004C00004FA01F343EA0C03F44000FA01F8380C93
:1004D0004FEA1349B4FBF0FE1FFA87FC00FB1E44F1
:1004E00049EA04440EFB0CF9A14502FA01F20AD9CB
:1004F0003C190EF1FF3A80F08480A14540F28180E2
:10050000AEF1020E3C44A4EB09041FFA83F9B4FBDC
:10051000F0F300FB134449EA044403FB0CFCA4453C
:1005200007D93C1903F1FF3067D2A44565D9023BD6
:100530003C4443EA0E40A0FB0293A4EB0C049C4213
:10054000CE469C4651D34ED055B1B8EB0E0364EB6A
:100550000C0404FA06F6CB401E43CC40C5E9006407
:10056000002150E7C2F1200320FA03F10CFA02FC4B
:1005700024FA03F394400C434FEA1C4800FA02FEAD
:100580001FFA8CF7B3FBF8F008FB1031230C43EA99
:10059000014300FB07F1994208D91CEB030300F16A
:1005A000FF362CD299422AD9023863445B1AA4B28E
:1005B000B3FBF8F108FB113344EA034401FB07F3F2
:1005C000A34208D91CEB040401F1FF3613D2A34265
:1005D00011D902396444E41A41EA004139E704467A
:1005E000F0E6084606E7C845AED2B9EB020E63EB6B
:1005F000070C0138A8E73146EDE7034699E7304696
:10060000D4E7D6467FE7634402384DE706462346E3
:1006100008460FE7023E634430E700BF704700BF63
:10062000DFF834D0002103E00C4B5B584350043119
:100630000B480C4B42189A42F6D30B4A02E00023B7
:1006400042F8043B094B9A42F9D303F023FE23F00E
:10065000F3F800F02DF97047000003209092020893
:100660000000002098010020A0030020803C012011
:10067000FEE7000008B503F041FE0F4A1368C31AF5
:10068000642B17D910600D4A1378B3FA83F35B0912
:10069000137011780A4B01F0FF0241B1094A1A6048
:1006A0000122BDE808400848402104F045BC074944
:1006B0001960F6E708BD00BFC0030020C903002091
:1006C0000C000020951100080010024039110008AC
:1006D00008B503F013FE084B1B785BB1074A13689B
:1006E000C31A642B06D91060054A1378B3FA83F352
:1006F0005B09137008BD00BFC9030020BC030020C4
:10070000C8030020B0F5006F01D1FFF7B3BF202868
:1007100001D1FFF7DDBF7047024800224FF460416E
:1007200004F00ABC0008024038B50E4C0546002211
:1007300020464FF4005104F0FFFB204600224FF406
:10074000804104F0F9FB204600224FF4004104F000
:10075000F3FB054B204633F81510012204F0ECFBA7
:10076000012038BD000802404842020807B5064B88
:10077000ADF806001B68054801220DF1060105F0E1
:10078000A9FF03B05DF804FB04000020B4040020BE
:1007900008B5642006F0EBFEFBE7000008B5034C4B
:1007A00023689847012006F0E2FEF9E70C000020DC
:1007B00008B5012006F0DBFEFBE7000007B50A28BC
:1007C000019006D1084909484FF0FF33012206F095
:1007D0000CFD4FF0FF33012201A9044806F005FD8E
:1007E000019803B05DF804FB4E4202082404002087
:1007F00013B5074C4FF0FF3301220DF107012046DE
:1008000006F041FD0028F5D19DF8070002B010BDAB
:100810002404002030B595B0102200210AA822F04F
:1008200063FF1422002103A822F05EFF00241E4B68
:1008300001941A6C42F080521A641B6C03F08053CE
:100840000193019B194B02941A6842F440421A60CA
:100850001B6803F4404302930122029B4FF4803350
:10086000CDE9082302254FF480030821CDE90E537A
:100870004FF4B473CDE9101308A804231393129511
:1008800005F0D0F905F094F90F23CDE903354FF4C5
:10089000A0504FF48053CDE90603052103A8059429
:1008A00005F09CFB15B030BD0038024000700040E0
:1008B0002DE9F04F9DB00024DFF8A89303F0F8FC79
:1008C000FFF7A8FF142200210FA822F00DFF0294C9
:1008D000D9F83030D54843F01003C9F83030D9F892
:1008E000303003F010030293029B0394D9F83030A8
:1008F00043F00403C9F83030D9F8303003F0040372
:100900000393039B0494D9F8303043F02003C9F8D3
:100910003030D9F8303003F020030493049B059461
:10092000D9F8303043F08003C9F83030D9F830308E
:1009300003F080030593059B0694D9F8303043F00B
:100940000103C9F83030D9F8303003F001030693C1
:10095000069B0794D9F8303043F00203C9F83030D1
:10096000D9F8303003F002030793079B0894D9F8B5
:10097000303043F04003C9F83030D9F8303003F05C
:1009800040030893089B0994D9F8303043F00803DA
:10099000C9F83030D9F8303003F008030993224603
:1009A0007C21099B04F0C8FAA14822464FF20401B9
:1009B00004F0C2FA9F48224643F2F40104F0BCFA64
:1009C0009D4822464FF4C44104F0B6FA22469B48A3
:1009D000982104F0B1FA3C2301254FF0030A0DEBF6
:1009E000030192481194CDE90F35CDF848A004F0E9
:1009F000B9F940238D480FA9CDE90F35CDE9114450
:100A000004F0B0F94FF4704289480FA902274FF063
:100A10000408CDE90F25CDE9114404F0A3F9844879
:100A200012970FA94FF4881BCDE90F85119404F09C
:100A300099F920227E4811940FA9CDE90F2B04F0DB
:100A400091F94FF440527B480FA9CDE90F254FF49F
:100A50000066CDE9114704F085F9754811950FA995
:100A6000CDE90F6B04F07EF9F42272480FA9CDE9AD
:100A70000F25CDE9114404F075F94FF4C4426E48D6
:100A80000FA9CDE90F25CDE9114404F06BF99822A7
:100A90006A480FA9CDE90F25CDE9114404F062F9A8
:100AA00022460521172003F085FE172003F0B4FE2F
:100AB00022460521282003F07DFE282003F0ACFE0D
:100AC0000194D9F8302042F48002C9F83020D9F8D6
:100AD0003020DFF8949102F4800201920521019AFE
:100AE0003820224603F066FE382003F095FE544875
:100AF000544A026003F09EFE534B544AC9F820400A
:100B0000C9E9003248464FF48042C9E90424C9E9E2
:100B10000244C9E9064404F029FC1021484604F0C7
:100B20006DFE2146484604F088FE49484949DFF8F1
:100B30003C9184624FF482724FF4007CC0E9001251
:100B40000A231822C0E906C2C362C0E90244C0E910
:100B50000444C0E9084405F061FD4FF0100E402345
:100B6000C9E904E33C4A0F974FF4C0734FF0070BF9
:100B7000C9E906340FA94FF400534846C9F8283094
:100B8000C9E90025C9E90864C9E902480826CDE990
:100B90001477CDE910B8CDE912BA05F023FC4FF671
:100BA000FF720BA94846CDE90C650B950A940E948B
:100BB00005F038FC284603F0A7FB4FF6FF720BA99F
:100BC0004846CDE90B76CDE90D5405F02BFC4FF6E8
:100BD000FF720BA94846CDE90BA6CDE90D8405F0BF
:100BE00021FC4FF40C720A920A9A0E920BA94FF64E
:100BF000FF724846CDE90B860D9505F013FC40F2D7
:100C00006A51484605F02CFC214634220FA822F0F8
:100C10006BFD124E124A3461C6E900240922C6E96E
:100C200005251D22C6E9072A22E000BF0010024068
:100C300000080240000C024000180240000402407C
:100C40004806002000300240005C0040A086010001
:100C5000B404002000500140400100A00C05002019
:100C60000068014000380240B4050020F003002075
:100C700040F20D1940F2431240F21713C6E90992EF
:100C8000304640F24712C6E90B32C6E90244B48648
:100C900086F8364004F076FEFF204FF00509F0217B
:100CA0004FF4A072CDE914044FF48060CDE912270F
:100CB000CDE91014CDE91609CDE918411A920FA912
:100CC000224630460F94674EADF86C408DF86E406A
:100CD00004F023FF644A3260126890473268634E22
:100CE000D2689047624A3046C6E90024C6E90274D9
:100CF000C6E90A47C6E90C4403F038FF29463046E6
:100D000003F0ECFF102221460FA822F0EDFC594E13
:100D1000594935614FF48032C6E900123046574ACE
:100D20003576B26286F830507561B46086F820403E
:100D3000F462F460C6F81C9003F0FAFA0B220FA9D3
:100D40003046CDE90F25CDF844B003F085FC0D22E7
:100D50000FA93046CDE90F2703F07EFC0FA93046DE
:100D6000CDE90F9A03F078FC06220FA930461192C4
:100D7000CDE90FB803F070FC0E220FA93046CDE983
:100D80000F29CDF844B003F067FC102221460FA8CC
:100D900022F0AAFC3A4D3B48AC605923C5E9000358
:100DA00040F2E7332846C5E90334CDE90B44C5E9F1
:100DB000054406F01DF84FF480530FA928460F9301
:100DC00006F04CF80BA928462F4FCDE90B4406F04E
:100DD000DFF82E484FF4E133C0E900732C4F046173
:100DE0000C23C0E90534C0E90244C46106F0CEF921
:100DF00000F041FE00F03EFE00F046F939464A465A
:100E0000304603F03BFB0A2003F07EFA214B3A68A0
:100E10001A607A685A6028463A891A8105F0AAFE53
:100E200006F032FB1C4A1D48214606F059FB1C4BBC
:100E30001C4A186021461C4806F052FB1B4B1C4AFA
:100E4000186021461B4806F04BFB1B4B1B4A1860E1
:100E500021461B4806F044FB1A4B186006F026FB9F
:100E6000FEE700BFC4030020480000200806002061
:100E700000B00240B0060020002001400100000F39
:100E80006C040020000001400010014024040020F8
:100E9000D4030020CA030020F04202089107000892
:100EA000EC030020CC420208851A0008E803002069
:100EB000A84202089D070008E403002084420208BB
:100EC000B1070008E0030020704770477FB5094B69
:100ED0008DF817201B6802930DF117020123009271
:100EE00001930A460146044804F0E8FA07B05DF8A9
:100EF00004FB00BF08000020B40500207FB50023DC
:100F00008DF81730084B1B6802930A4601230DF138
:100F10001701009101930146044804F05FFB9DF81E
:100F2000170007B05DF804FB08000020B40500209E
:100F30001FB5084C24680092CDE901340A4601230C
:100F40000146054804F04AFB003818BF012004B0F0
:100F500010BD00BF08000020B405002003F0D4B984
:100F600010B5064C00222046042103F0E5FF204680
:100F70000122BDE81040042103F0DEBF000802405A
:100F800038B50B4D044601220A484FF4005103F0D6
:100F9000D3FF00220421284603F0CEFF2046FFF7AE
:100FA000E5FB28460122BDE83840042103F0C4BF18
:100FB00000080240000C024038B50B4D04460022E8
:100FC0000A484FF4005103F0B7FF002204212846DD
:100FD00003F0B2FF2046FFF7C9FB28460122BDE817
:100FE0003840042103F0A8BF00080240000C024072
:100FF000F7B5144E144F05460C4630460022042126
:1010000003F09AFF00224FF40051384603F094FF9A
:101010002846FFF7ABFB0D4B0D481B68224601A984
:1010200005F004FD384601224FF40051019C03F005
:1010300083FF30460122042103F07EFF204603B0E7
:10104000F0BD00BF00080240000C02400400002078
:10105000B404002003F058B90268084B9A4210B556
:10106000044601D103F03EF92268054B9A4203D1B0
:10107000BDE8104000F0ECB810BD00BF001000400B
:10108000000001407047000008B5002208211E2022
:1010900006F0C9FF044B186020B9BDE808400348BA
:1010A00022F042BA08BD00BFF8060020144302082F
:1010B0000E4B13B504461868A8B10023ADF8001014
:1010C000D1881289ADF80210ADF8042069461A469D
:1010D0008DF807308DF8064007F00CF8012802D093
:1010E000034822F021FA02B010BD00BFF80600202C
:1010F0002D43020807B50E4A03461068A0B18DF8CB
:1011000006300B88ADF800304B88ADF802308B8884
:10111000ADF8043000231A46694606F0EBFF0128BB
:1011200002D0044822F000FA03B05DF804FB00BFCF
:10113000F80600202D43020870B50024124E134D0E
:10114000224636F8023B35F8021B5B1A002BB8BF6B
:101150005B42962B0BDD2046FFF7E6FA35F8020CD2
:1011600000F058F835F8023C26F8023C0122013420
:10117000032CE6D132B1064B04491878BDE8704023
:10118000FFF7B8BF70BD00BFCA030020D403002022
:10119000C903002038B51A4D1A4CFFF7BDFAE8888C
:1011A000E3881B1A002BB8BF5B42962B22DD00F0B0
:1011B00031F8EB88E3800122288923891B1A002B50
:1011C000B8BF5B42962B04DD00F024F82B89238105
:1011D00001220D4B0D491C78087884420CD01A78F6
:1011E000D2B20A700A4A10781978054ABDE8384028
:1011F000FFF75EBF0022DFE7002AF3D138BD00BF52
:10120000D4030020CA030020C8030020FC060020ED
:10121000C903002030B564214FF47A73B0FBF1F2BA
:10122000B0FBF3F401FB120203FB1403B3FBF1F375
:101230000A21B2FBF1F2B0FBF1F501FB1500034905
:101240000C604B608A60C860012030BD040700203C
:101250002DE9F047204D214E00242F46B04656F888
:10126000041B55F8040B012289B2013403F064FE1B
:10127000042CF4D11A4E1B4D1B4CDFF874904FF028
:10128000070A236855F8041B59F82320174B56F812
:10129000040B53F8222022FA0AF212F0010218BFBE
:1012A000012289B203F048FEBAF1010AE9D22368AB
:1012B000002238F8231057F8230003F03DFE23687E
:1012C00001335A4202F0030203F0030358BF5342B2
:1012D0002360BDE8F08700BF300000206C430208A7
:1012E000100000204C430208000700207C43020845
:1012F0000407002082B00E4B00220092596C41F48A
:1013000080415964596C01F4804100910099019227
:10131000196C41F0805119641B6C03F080530193E8
:10132000019B0F216FF0010002B003F043BA00BF30
:101330000038024070B5064688B01422002103A888
:1013400022F0D2F93268294B9A424CD103F58C3302
:10135000002500955A6C264842F480725A645A6CF3
:1013600002F480720092009A01951A6B42F0040216
:101370001A631A6B02F004020192019A02951A6B29
:1013800042F001021A631B6B03F001030293032472
:10139000029B03A91A23CDE9033403F0E3FCA02345
:1013A0001448059503A9CDE9033403F0DBFC124C86
:1013B000124B4FF48062C4E900354FF40063C4E976
:1013C00004234FF400514FF480732046C4E90255C2
:1013D000C4E90613C4E9085503F052FA08B1FFF74F
:1013E00051FEB463A66308B070BD00BF0020014089
:1013F0000008024000000240500600201064024035
:101400000268094B9A4282B00BD100230193074B2B
:101410001A6B42F480521A631B6B03F480530193DE
:10142000019B02B0704700BF00300240003802400C
:1014300007B50F4B02689A4216D10022A3F5F0437C
:101440000192196B41F4000119631B6B03F4000353
:10145000019305215A20019B03F0ACF95A2003B0F7
:101460005DF804EB03F0D8B903B05DF804FB00BFEE
:1014700000B002402DE9F043044689B01422002157
:1014800003A822F031F92268244B9A4243D1244C1C
:10149000244800250095236B43F004032363236B4A
:1014A00003F004030093009B0195236B43F00103B9
:1014B0002363236B03F001030193019B4FF0120997
:1014C0004FF400734FF001080327042603A9CDE968
:1014D0000339CDE90587079603F044FC4FF4807388
:1014E0001148079603A9CDE90339CDE9058703F033
:1014F00039FC0295236C43F400032364236C03F44A
:1015000000030293029B236A43F400032362236ACD
:1015100023F40003236209B0BDE8F083005C0040BF
:10152000003802400008024000000240F0B599B0C7
:1015300004461422002107A822F0D6F830220DEB31
:101540000200002122F0D0F822685E4B9A4240F05F
:10155000B78008230C93C0231093042312930CA884
:101560004FF40033159304F011FE08B1FFF78AFD24
:10157000554B5648002400945A6C42F080625A64DD
:101580005A6C02F080620092009A01941A6B42F049
:1015900020021A631A6B02F020020192019A02944F
:1015A0001A6B42F001021A631A6B02F001020292F6
:1015B000029A03941A6B42F002021A631A6B02F049
:1015C00002020392039A04941A6B42F040021A63D7
:1015D0001A6B02F040020492049A05941A6B42F0CE
:1015E00004021A631A6B02F004020592059A06942B
:1015F0001A6B42F008021A631B6B03F00803069390
:1016000002250E26069B0B964FF4806307A9CDE9B1
:101610000735CDE9094503F0A5FB41F658032C48F1
:101620000B9607A9CDE907350927CDE9094503F050
:1016300099FB032327480B9707A9CDE90735CDE987
:10164000094503F08FFB4FF4706322480B9607A9FE
:10165000CDE90735CDE9094503F084FB4FF40C6370
:101660001D480B9607A9CDE90735CDE9094503F0DB
:1016700079FBC02319480B9607A9CDE90735CDE9B9
:10168000094503F06FFB082315480B9607A9CDE920
:101690000735CDE9094503F065FB4FF4A0530E482B
:1016A0000B9707A9CDE90735CDE9094503F05AFBAA
:1016B00058202246052103F07DF8582003F0ACF8AD
:1016C00019B0F0BD0068014000380240001402402B
:1016D00000000240000402400018024000080240DE
:1016E000000C024010B5044688B01422002103A863
:1016F00021F0FAFF2268144B9A4223D103F5684384
:10170000002101915A6C114842F480125A645A6CBB
:1017100002F480120192019A02911A6B42F02002A7
:101720001A631B6B03F020030293029B4FF4607259
:1017300002230321CDE903230523CDE9061303A9E1
:1017400003F010FB08B010BD00500140001402402F
:1017500007B50F4B02689A4216D1002203F59C335D
:101760000192596C41F0010159645B6C03F0010373
:10177000019305211920019B03F01CF8192003B0E7
:101780005DF804EB03F048B803B05DF804FB00BF5C
:101790000000014010B5044688B01422002103A8BF
:1017A00021F0A2FF2268144B9A4223D103F594330F
:1017B000002101915A6C114842F010025A645A6C8F
:1017C00002F010020192019A02911A6B42F001029A
:1017D0001A631B6B03F001030293029B4FF4C06278
:1017E00002230321CDE903230723CDE9061303A92F
:1017F00003F0B8FA08B010BD00100140000002402C
:101800002DE9F04186B0002303932B4B1C68002C7C
:101810004FD14FF00108C3F80080284B00949A6B19
:10182000274842EA08029A639B6B03EA0803009385
:10183000022703260C25009B01A94FF63F03CDE9A3
:101840000137CDE9046503F08DFA1E48059501A91D
:10185000CDE90187CDE9034603F084FA48F233135A
:101860001948059501A9CDE90137CDE9034603F0F3
:1018700079FA4FF683731548059501A9CDE901372B
:10188000CDE9034603F06EFA4CF203731048059558
:1018900001A9CDE90137CDE9034603F063FA6023DE
:1018A0000C48059501A9CDE90137CDE9034603F0C0
:1018B00059FA06B0BDE8F081140700200038024054
:1018C00000140240000802400018024000100240CC
:1018D000000C02400004024070B588B0002302935F
:1018E000204B1A6C42F010021A641B6C03F01003B8
:1018F0000293054601A903A8029B04F029FC069B5C
:101900004BBB04F005FC184E184B336040F2E73334
:10191000F360174BB0FBF3F3013B736030460023D9
:101920003361B360B36105F063FA044680B93046B1
:1019300005F020F9044658B9362002F06DFF0F2D4E
:101940000DD822462946362002F034FF094B1D608F
:10195000204608B070BD04F0DBFB4000D3E7012453
:10196000F6E700BF003802401807002000100040D2
:1019700040420F00B00000207047FEE7FEE7FEE7A0
:10198000FEE77047202003F0E5BA0000014805F0AB
:101990002FB900BF6C0400204FF4006003F0DABAE6
:1019A000014805F025B900BF18070020014803F0E1
:1019B0001FB800BF50060020014804F051B800BF16
:1019C0000C050020014803F0FFB800BF0806002006
:1019D0000120704708B521F029FF162303604FF05E
:1019E000FF3008BD08B521F021FF16230360FEE794
:1019F00070B50D4614460E46731B9C4201DC204612
:101A000070BDFEF7F5FE06F8010BF5E770B50D4663
:101A100014460E46731B9C4201DC204670BD16F82E
:101A2000010BFEF7CBFEF5E74FF0FF3070474FF4A8
:101A300000534B6000207047012070470020704722
:101A40000A4A116808B5034609B9094911601068C6
:101A5000694603448B4206D921F0E8FE0C2303605B
:101A60004FF0FF3008BD1360FCE700BF60070020A7
:101A7000803C0120704708B500F09CFDBDE808409F
:101A800000F020BD00F098BD704710B50421044659
:101A900020F0D7FB204610BD38B50C4B0C4C1880FD
:101AA0000C4B822019806368984740F611039842D6
:101AB0000AD1094D23682C60822098472B68822028
:101AC000DB689847002038BD0120FCE76E07002046
:101AD000800000206C070020700700204FF4A071E8
:101AE000F020FFF7D9BF0000F7B52C4D2B68044656
:101AF0001B69822098472080002843D02B680DF175
:101B000006025B6901A982209847BDF80620A2F56C
:101B1000B47292B20A2A37D90B23B2FBF3F2204BEC
:101B20001B889A4201D9013B9AB2BDF8043040F6B5
:101B3000B8318B422AD8C3F571630E339BB20F21A3
:101B4000B3FBF1F3174909888B4201D901398BB2F4
:101B5000154E164D30682F68834281B28CBF591ADA
:101B6000C91AB8B2BA428CBF101A801A89B280B2B0
:101B700001440529C8BF33603368C8BF2A60638049
:101B80002B68A38003B0F0BD0022CEE7C3F56D63E0
:101B900008339BB20E2BD2D80023D9E77007002060
:101BA0006C0700206E0700206807002064070020F3
:101BB00037B568460D461446FFF796FFBDF800009E
:101BC00030B1BDF802302B60BDF804302360012035
:101BD00003B030BD032821D8DFE800F0020B121952
:101BE0000F4B1A68B2FA82F2520904210D4803F031
:101BF000A3B90B4B5A68B2FA82F252090821F5E7F1
:101C0000074B9A68B2FA82F252091021EEE7044BB0
:101C1000DA68B2FA82F252092021E7E7704700BF82
:101C20007407002000100240032821D8DFE800F0EC
:101C3000020B12190F4B1A68003A18BF0122042137
:101C40000D4803F079B90B4B5A68003A18BF0122CE
:101C50000821F5E7074B9A68003A18BF01221021C6
:101C6000EEE7044BDA68003A18BF01222021E7E7CB
:101C7000704700BF740700200010024003280DD8F1
:101C8000DFE800F00206080A0421054803F059B90C
:101C90000821FAE71021F8E72021F6E7704700BF96
:101CA0000010024008B5032811D8DFE800F0020A4E
:101CB0000C0E0421074803F039F9431E58425841DD
:101CC00008BD0821F6E71021F4E72021F2E7002003
:101CD000F3E700BF0010024070B5084D0024012654
:101CE000E0B2FFF7DFFF18B12B68012B18BF2E60A1
:101CF0000134052C05F10405F2D170BD74070020F4
:101D0000012380F8781080F8793070470020704700
:101D1000034B4164003918BF01211970704700BF9F
:101D20003F2F012000207047836B0BB108461847F6
:101D300070474FF6FF707047406803689B6918470B
:101D4000704770477047000010B5044600F042FD30
:101D500023680349D3F88C302046BDE8104018476B
:101D6000000000D008B503680446D3F880309847D7
:101D7000236820469B6F984700F0ECF823682046C4
:101D80001B6F98472920FFF717F900F0E3F8236845
:101D900020461B6F9847F8E710B5044608F062FF2D
:101DA00023682046D3F8AC30BDE81040184700F057
:101DB000F3BC00F0F7BC00F02BBD00F0C9BC00F094
:101DC0003BBD00F043BD00F0CDBC08F0B7B910B585
:101DD0007C21044620F035FA204610BD10B590F85D
:101DE000341090F878400C4B8C421A7809D03AB9EC
:101DF0000A4A0B491488088810800C8001221A7046
:101E000010BD002AFCD0054A0549148808881080B6
:101E10000C800022F3E700BF382F0120342F01206F
:101E2000362F012070B50D46194635B9094B0A4ABF
:101E30000A4840F2D22121F04BF9C0E90F52084B79
:101E4000003A18BF01221A700368BDE87040D3F849
:101E50008C301847BC430208F4430208424402088D
:101E60003E2F012008B5094B1B888B4203D8084B35
:101E70001B88934205D9074B074A08489E2121F049
:101E800027F9074B1980074B1A8008BD342F012012
:101E9000362F012087440208EA440208424402081F
:101EA0003A2F01203C2F0120034690F87A0018B108
:101EB000586803681B68184770470000012108B57F
:101EC0000022084605F05FFB0A4B186028B90A4B50
:101ED0000A4A28210A4821F0FBF8002204210120A7
:101EE00005F0F0FB074B186018B9074B034A2C218B
:101EF000F0E708BD8807002008460208514602089E
:101F00008046020884070020CD460208024B4FF0AD
:101F1000FF31186805F081BB88070020014B186865
:101F200005F0A7BB88070020024B0021186805F0C8
:101F300074BB00BF88070020FFF7F0BF03480449C7
:101F4000006800231A4605F0F8BB00BF8407002094
:101F50004000002013B5084C00231A4601A9206850
:101F600005F01CFC20684FF0FF33002201A905F0AA
:101F700015FC02B010BD00BF8407002003685B6C35
:101F800018470120704703689B6A1847FEE740F234
:101F9000EF307047054B0360054B4FF08062C3F88C
:101FA0008820BFF34F8FBFF36F8F70476C480208D4
:101FB00000E100E010B504464FF45A61FFF7EAFF74
:101FC000204620F03EF9204610BD000082B00023DC
:101FD00001930E4B1A6B42F400021A631A6B02F45F
:101FE00000020192019A1A6942F400021A611A6908
:101FF00022F400021A61064B064A1A61064A5A6127
:10200000064B4FF080629A6002B070470038024081
:10201000080600206D2200088D1F000800E100E086
:1020200008B50A2809D8DFE800F006100E080808ED
:10203000081010101000022008BD054B054A064884
:10204000902121F045F80020F6E70120F4E700BFD9
:102050000F4702082A4702087547020838B50C46A0
:10206000887FFFF7DDFFA58AE28A164B2169586356
:1020700042EA05425A64628BD963521B1A6425688E
:10208000082D0ED19A611A615862207F0E4A42EAE9
:102090000062DA61E2681A620C4A5961D9601A601A
:1020A00038BD0022D8611A61E1680A0A480902F4C1
:1020B000784200F4FC600243C1F3C4010A439A630E
:1020C000034AECE700B002400900010001230200CE
:1020D0000123030008B50B280BD8DFE800F0061237
:1020E000100A0A0A0A0808080808022008BD052084
:1020F000FCE7054B054A06486F2120F0E9FF002068
:10210000F4E70120F2E700BF0F470208C0470208CA
:10211000754702082DE9F04191F81D800C464046B4
:10212000FFF7D8FFA77F05463846FFF7D3FF0646DF
:102130003846FFF775FFA18A628B444B521A1A6426
:102140009A61228B521A1A61E28A586342EA01426A
:102150005A6421696268D963DA602068802828D0CF
:10216000227F0FD8202867D0402865D004281AD0B5
:10217000364B45EA026545F40035B845DD6161D06E
:10218000334A44E0B0F5807F04D0B0F5007FEFD152
:10219000304800E0304840EA0262DA61E2681A62E0
:1021A0005E62596132E045EA026242F40032DA616D
:1021B000F6E7A068021DDA62227F45EA026545F46F
:1021C0000035DD615E625961017841B1012921D09C
:1021D000224B234A23484FF48D7120F079FFDA69AE
:1021E000418822F47F42013922F0100242EA0122A2
:1021F000DA610121154BDA6942F02002DA61DA690D
:102200009206FCD410229A600029B9D0164A1A60AE
:10221000BDE8F081B2F1FF01DA69408822F47F4223
:1022200000F1FF3022F0100242EA002242F01002D8
:1022300018BF0121DA61DDE745EA0262034B42F48F
:102240000032B4E742F20132E1E700BF00B00240E1
:1022500001230100090002000A0002000A480208E6
:10226000244802087547020801230200024B1B683C
:10227000586803685B691847402F012070B5044611
:1022800025460A4B0C30002660602672667245F8BF
:10229000203B6022294608F03DFE04F55A63EE60BB
:1022A00024359D42FBD1204670BD00BF6C4802081A
:1022B000034B1A68D207FCD423229A60704700BFF0
:1022C00000B002407047000030B50F4C2568ED07A4
:1022D000FCD423250904A56041F001010225FF2B50
:1022E00065636164E0630AD00849656241EA03639B
:1022F000E361074B22626061E060236030BDE5610D
:10230000039BA363034BF8E700B002400900010000
:10231000010002000100030030B50E4C2568ED07F6
:10232000FCD423251204A56042F001020225FF2BF4
:1023300065636264E063E16008D01B0643F002134A
:10234000E361054B65626061236030BD034BE3616F
:102350000123F9E700B0024001000200020002FF81
:1023600030B50B4C2568ED07FCD4232512041B0661
:10237000A56043F40033022542F001026563626404
:10238000E063E160E361034B65626061236030BD3F
:1023900000B0024001000200012070470C2070478D
:1023A0000C2303FB0100083070470C2303FB0100E2
:1023B000083070470120704740F61C00704740F617
:1023C0001C0303FB01000830704740F61C0303FBAD
:1023D00001000830704701207047242070472423F3
:1023E00003FB010008307047242303FB0100083081
:1023F0007047084600F0A8BC10B5034B03600446C4
:1024000007F023F9204610BD2449020810B5044600
:10241000FFF7F2FF204614211FF013FF204610BDE6
:1024200010B5034B0360044607F00FF9204610BDBA
:10243000F048020810B50446FFF7F2FF204640F6C8
:1024400024011FF0FEFE204610BD000010B5034B16
:102450000360044607F0F9F8204610BDBC480208A6
:1024600010B50446FFF7F2FF20462C211FF0E9FECD
:10247000204610BD10B5084B0360044600F664000A
:10248000FFF7BAFF04F14000FFF7CAFF04F11400A0
:10249000FFF7DCFF204610BD5849020808B5024886
:1024A000FFF7E8FF08BD00BF5C16002010B504462A
:1024B000FFF7E0FF204640F6D8111FF0C2FE20468D
:1024C00010BD00002DE9F34100F0B4FA054600F01C
:1024D000B5FA00240146234628462246009410F00F
:1024E00073FE274B274A1A60204601F077FA264DE3
:1024F000264B274A27489A6010F0CEFD2B68BFF381
:102500005B8FDB0735D428461FF09DFE88B3224C35
:10251000224B236004F67C0604F1140004F1400809
:1025200004F664076060C4F80880E760266107F07D
:102530008DF81B4B6361404607F088F8194B236404
:10254000384607F083F8184BC4F8643804F678006E
:1025500001F0E9FB224604F67801304601F0BCFAAE
:10256000304600F0F1FB114820F0D0FD28461FF066
:1025700076FE0F4802B0BDE8F041FFF7E5BB00BFB3
:10258000A42F012008080020581600202808002049
:102590000C080020440000205C1600205849020866
:1025A000BC480208F0480208244902089D2400089B
:1025B0008C070020704700000148FFF7D3BB00BF25
:1025C0008C07002070B5244E244C254D254B2360EC
:1025D0003046FFF753FE284615F0FCFE22480EF069
:1025E000FBFA224B2248DC6000224FF48071C3E9E1
:1025F000121220491A86C3E91A121F4999671F4906
:1026000083F858200B60F02101801D485A66018034
:102610001C4883F870204FF4A071C3E90422C3E979
:102620000622C3E90822C3E90A22C3E90E22C3E94C
:102630001022C3E91422C3E917225A67C3E90165CE
:1026400001801148018011490A70012283F8342069
:102650000F4A1A6070BD00BFB40800205416002055
:1026600028080020AC4302080C0800208C0700203A
:10267000342F01200100000100000101402F012042
:102680003A2F0120362F01203C2F0120382F012026
:10269000384502080148FFF77DBC00BFB4080020A0
:1026A0000020704781807047C1807047018170476A
:1026B000418170477047704770477047704710B44A
:1026C000C4880368121B84885B6D091B12B25DF815
:1026D000044B09B218474FF6FF7383814FF0FF3365
:1026E00003621368C36110607047002070478B88D5
:1026F000838001207047704780F82610704790F85B
:102700002600704710B50022B1F90840B1F90A104F
:10271000028042808480C18010BD002202804280FD
:102720008280C28070470177704780ED080A704749
:1027300080F82410704780F82510704701207047FA
:10274000983070478C307047843070477047000075
:10275000034B902283F85A2383F85823704700BF15
:1027600000E100E0094A0A49D3680A48C3F30A03B2
:10277000013B9BB20B801169C1F30A010139018051
:102780001364536B43F001035363704700680140C7
:102790003620002034200020014BD3F8AC007047D5
:1027A00000680140024B0122C3F8AC105A62704726
:1027B000006801407047704710B52C2104461FF097
:1027C00040FD204610BD10B5BC2104461FF039FD68
:1027D000204610BD70B5044607F005FD23685D6E08
:1027E0000DF084F801462046A8472368054AD3F82F
:1027F00088502046AC460023BDE87040A2F5163153
:10280000604700BF00B004D007F0D4BC07F0DEBCC6
:1028100007F09ABC07F0FBBD90F8252012B10368C1
:102820005B691847704790F825201AB190F824206A
:1028300002B1186070470000034B4FF080629A604D
:102840004FF080729A60704700E100E0084B4FF053
:102850008062C3F88820BFF34F8FBFF36F8F4FF0B4
:102860008072C3F88820BFF34F8FBFF36F8F70471C
:1028700000E100E070B50023124E8380124B03602C
:10288000336893F8582005460AB1D86C00B99868A7
:102890000368DB6A98473368B0FA80F4D86C64093F
:1028A00030B10368DB6A9847002808BF44F0010490
:1028B0002CB9064B064A07482C2120F009FC284673
:1028C00070BD00BF402F0120684A02086449020819
:1028D000C2490208FB49020870B5244E3568BFF3AF
:1028E0005B8F15F001053FD130461FF0ACFC00288E
:1028F0003AD01F4C1F4B256104F13400C4E9003568
:10290000C4E90255E584A562A5850EF0C4FB04F177
:10291000580009F0FBFE184BA3652046174B40F802
:10292000843BFFF7A7FF164BC4F884302433C4F868
:102930008C306423C4E928350023C4F8AC30C4F8D3
:10294000B030C4F8B430C4F8B8300E480E4BC4F8F8
:102950009050C4F89C50C4F8A850C4F8983020F0A7
:10296000D5FB30461FF07BFC014870BD38200020AD
:102970003C2000203C590208884A0208004B02080B
:10298000F05802084D270008D058020810B5144C22
:10299000236823B3134B144A1B6C11888B4213D149
:1029A000124B198803F0E6F8226892F86A30013376
:1029B00082F86A30FFF7C2FA206808F053F9BDE8E0
:1029C00010400020FFF706B903F0D4F82068036830
:1029D0001B6A9847BDE810400020FFF725B910BDDD
:1029E000402F0120006801403620002034200020C4
:1029F000704710B5042104461FF023FC204610BD8B
:102A000008B5032913D8DFE801F002060A0E01F029
:102A100031F8006808BD01F02DF84068FAE701F0D0
:102A200029F88068F6E701F025F8C068F2E7002091
:102A3000F0E7000000487047584B0208012070473B
:102A400013B5002451B1036801948DF8034001AA25
:102A50009C680DF10303A04702B010BD0846FBE7D8
:102A6000C0897047008A7047C08870478088704767
:102A7000807A00F07F007047807AC009704700209C
:102A8000704700009FED010A704700BF0000000082
:102A9000704710B5082104461FF0D3FB204610BD37
:102AA0007047704700F598730868496803C370471A
:102AB000704770474160704770470000064BC0F890
:102AC0004C310023C0F8503100F5A273C0F8480122
:102AD000C0F84031704700BF7D2B0008012303720E
:102AE00070477047704710B4C2684168541003467D
:102AF00001EB6200D20748BF0A599B685DF8044B9E
:102B000048BFD35818470346406830B19A681AB98D
:102B1000D86800F0010070470120704710B50C2103
:102B200004461FF08EFB204610BD10B51021044650
:102B30001FF087FB204610BD10B54FF4AE71044660
:102B40001FF07FFB204610BD10B50CF0CFFE0368D0
:102B5000BDE81040DB6B184710B50446D0F84001C3
:102B600058B10368DB68984738B1D4F8400103686E
:102B70009B6898470023C4F8403110BD2DE9F14F00
:102B8000D0E9556A0746B06803681B6A984740F663
:102B90001B03984205D8444B444AA321444820F0E3
:102BA00097FA706803681B6A9847232803D8414B3B
:102BB0003E4AA421F2E7F06803681B6A98470B2895
:102BC00003D83D4B394AA521E8E70CF08FFEDFF82A
:102BD000F09004300CF0C8FED9F8000010B1036882
:102BE000DB689847D9F8000010B103681B68984764
:102BF000DFF8D080D8F8000010B103685B6998470F
:102C0000D7F83C0110B103685B689847D8F800001A
:102C100010B103681B689847D7F83C0110B10368EE
:102C20009B689847F068036800215B6A98474FF0FB
:102C3000000B224BC0F804B0044680F808B00360D3
:102C4000B068036859465B6A9847054600F0FAFF8A
:102C50007068036859465B6A98472946064600F043
:102C600083FF331DC7F83C61C9F80040C8F8005025
:102C7000CAF800302B68C6F808A02846DB68EE6367
:102C80009847336830461B689847214628460EF01F
:102C9000F1FE236820461B69984723685B6920463C
:102CA00001B0BDE8F04F18477C4B02080A4C0208FF
:102CB000E24C0208294D0208CC4D0208E44E0208FD
:102CC000882F0120842F0120044B1B6893F8582083
:102CD0000AB1D86C00B99868704700BF402F012036
:102CE000F8B5174604460E460CF00CFF124B1C605C
:102CF000124B2360124B0025C4E95135114BC4E936
:102D000053551868036801219B68C4E94F55C4E90D
:102D100055769847284600F061FEFFF7D5FF17F07B
:102D2000ACF9FFF7D1FF17F023FAFFF7CDFF17F04B
:102D30002BFA2046F8BD00BF942F0120904E0208C8
:102D4000784E0208402F0120064BC0F84C3100237A
:102D5000C0F8503100F5A273C0F84801C0F8403106
:102D6000704700BF7D2B0008406A7047806A70473B
:102D700070478B88C0690A68DB0A50F8230010444A
:102D8000704710B50446BAB1107B68B1537BD27A54
:102D90001B0203F4E0631A43236A03EB82031A88DD
:102DA0008A4202D193F9020010BD05D8013880B2E1
:102DB00004330028F3D1F7E70020F5E710B52C2104
:102DC00004461FF03EFA204610BD000030B58BB01F
:102DD0000446BDF860500895BDF85C5007959DF815
:102DE000505006959DF84C5005959DF84850049517
:102DF0009DF8445003959DF8405002959DF83C5035
:102E00000195BDF8385000950EF002FA064B23608C
:102E1000159BE361169B2362199B63621A9BA36255
:102E200020460BB030BD00BF084F0208806A7047D3
:102E30007047704770477047704730B5036801812D
:102E400085B06D460146D3F884300446284698473D
:102E500095E807003C3484E8070005B030BD30B584
:102E60000368418185B06D460146D3F8843004463D
:102E70002846984795E807003C3484E8070005B0E9
:102E800030BD0022028042808280C280704780F87C
:102E90003610704770B5036804461B6B154698479B
:102EA0002368294620465B6EBDE870401847002025
:102EB0007047806C70477047704790F82C3023B192
:102EC00000F180031B684366704700F17C03F9E75B
:102ED0007047704790F82D3080F86A30704710B511
:102EE0004C2104461FF0ADF9204610BD10B58421D9
:102EF00004461FF0A6F9204610BD10B540F61C018F
:102F000004461FF09EF9204610BD08B5FFF784FC6B
:102F100008BD10B50446006B50B10368DB689847E4
:102F200030B1206B036821469B68BDE8104018470C
:102F300010BD0000036870B55E6B124B1B68044641
:102F40008DB22BB9104B114A6C21114820F0C0F8FA
:102F50001049828D0988914203D80F4B0B4A6D218D
:102F6000F3E713F812200D4B1B6853F82200036897
:102F70001B6B9847291A3346204609B2BDE87040BA
:102F8000184700BF982F0120684F0208AA4F020877
:102F9000E54F02089C2F01202C500208A02F012091
:102FA0000B7970B590F82C6004460D460BB916B13C
:102FB00070BD002EFCD0B3FA83F35B0984F82C308B
:102FC00023682046D3F88C309847236820465B69F5
:102FD0009847002EECD02B79012BE9D123682046AD
:102FE000D3F88830BDE87040184700224FF0FF3119
:102FF000C0E9002182607047074A02600022C0E9F0
:103000000122C0E90322C0E90522C0E907224FF4EA
:1030100080728284704700BF305C020870B503681C
:1030200004461B6B154698472368294620465B6B70
:10303000BDE87040184770B5036804469B6B1546A1
:103040009847236829462046DB6BBDE87040184747
:1030500038B504461D46FFF7E1FFBDF910202946AB
:103060002046FFF7E8FF38BD10B5262204460021B0
:1030700020F03AFB2046FFF7BFFF044B2360FF23FD
:1030800084F826300023A362204610BD905A02081F
:1030900010B526220446002120F026FB2046FFF72B
:1030A000ABFF0A4B23600A4BA3624FF6FF73A38565
:1030B0004FF47F020023C4E90C3223874FF0FF3224
:1030C000C4E91023E363204610BD00BF005A020884
:1030D000744B02082DE9F04F044697B0A146002535
:1030E0000EF01CFBDE4BE56349F8403B4846FFF71A
:1030F000BBFF04F16C0304F1A00ADA4E0E931846EC
:10310000FFF7B2FFE6665046C4F89850A4F89C500A
:10311000FFF7AAFF04F1D40304F580781846C4F839
:10312000A060C4F8CC50A4F8D0500F93FFF79CFFD8
:103130004046FFF7ADFF04F5A47318460693FFF76A
:10314000A7FF04F5C87318460793FFF7A1FF04F51E
:10315000EC7318460893FFF79BFF04F508731846B5
:103160000993FFF795FF04F51A7318460A93FFF7C2
:103170008FFF04F52C731846029306F035FB04F517
:1031800065731846039306F02FFB04F58F6318460A
:10319000049306F029FB04F25C5304F5C86B18464F
:1031A000059306F021FB584606F01EFB04F224733B
:1031B00018460D93FFF76CFFAB4BC4F8243704F5AA
:1031C000EE631846C4F86C570B93FFF715FF4FF4E6
:1031D0007F43A4F89C374FF0010384F89437A34B46
:1031E000C4F8703704F2A4731846C4F89857C4F8AA
:1031F000A0570C93FFF74CFFDDE90B01C4F8EC5727
:10320000C4F8F05706F004FD4FF4A073261D4FF0EC
:103210007F472A46484600932946F023FFF718FFC8
:103220004946A766304606F0F3FC8723DFF8449250
:103230000E9800932A46F0232946FFF709FF4FF026
:103240000503C4E925970E99A4F89C30304606F092
:10325000DFFC79239B22504600932946F023FFF799
:10326000F7FE4FF00503C4E932975146A4F8D03079
:10327000304606F0CDFC32234FF487720F9800934E
:103280002946F023FFF7E4FE794BC4F8FC300F9990
:10329000DFF8E4A130460DF1400906F0B9FCA022A8
:1032A00040460A21FFF7BAFE4146C4F8307148464D
:1032B000A4F8345109F028FB99E8070004F59E733F
:1032C00083E807000823404614A9ADF85430CDF830
:1032D00050A009F0B3FD4146304606F099FC242287
:1032E00006981C21FFF79AFE0699C4F878714846A3
:1032F000A4F87C5109F008FB99E8070004F5C27CAA
:103300008CE8070004220698ADF8542014A9CDF8E3
:1033100050A009F093FD0699304606F079FC082389
:103320001A4607984521FFF779FE0799C4F8C0713E
:103330004846A4F8C45109F0E7FA99E8070004F5F3
:10334000E67383E807004FF001030798ADF85430A7
:1033500014A9CDF850A009F071FD0799304606F088
:1033600057FC462208981C21FFF758FE0899C4F81C
:1033700008724846A4F80C5209F0C6FA99E807000A
:1033800004F5057383E807004FF003080898CDF8AB
:1033900050A014A9ADF8548009F050FD08993046AA
:1033A00006F036FCE42209980A21FFF737FE099956
:1033B000C4F850724846A4F8545209F0A5FA99E8A6
:1033C000070004F5177383E8070007230998ADF891
:1033D000543014A9CDF850A009F030FD09993046B9
:1033E00006F016FCC2220A980A21FFF717FE0A9976
:1033F000C4F898724846A4F89C5209F085FA99E8F6
:10340000070004F5297383E8070006230A98ADF83E
:10341000543014A9CDF850A009F010FD0A99304697
:1034200006F0F6FB12270298A3227F21FFF7F6FD94
:103430000298009764232A46294606F030F90123B2
:10344000009364231A460298294606F045FA02982A
:10345000294606F020FA0298ADF850500EE000BF61
:10346000EC510208F85A0208C050020850510208F4
:10347000B2B2B2FF898991FF744B020814A906F019
:1034800059FB9349029806F0F4F80298414606F079
:103490001EF90299304606F0BBFB03984A227821B8
:1034A000FFF7BCFD0398009764232A46294606F0DF
:1034B000F6F80123009364231A460398294606F080
:1034C0000BFA0398294606F0E6F90398ADF8505038
:1034D00014A906F02FFB7F49039806F0CAF8039859
:1034E000414606F0F4F80399304606F091FB049843
:1034F00028227821FFF792FD0498009764232A463A
:10350000294606F0CCF80123009364231A46049858
:10351000294606F0E1F90498294606F0BCF904981A
:10352000ADF8505014A906F005FB6A49049806F05E
:10353000A0F80498414606F0CAF80499304606F00F
:1035400067FB0598E7227F21FFF768FD0598009744
:1035500064232A46294606F0A2F801230093642337
:103560001A460598294606F0B7F90598294606F047
:1035700092F90598ADF8505014A906F0DBFA5449B9
:10358000059806F076F80598414606F0A0F80599EA
:10359000304606F03DFBC5227F215846FFF73EFD31
:1035A000009764232A462946584606F078F80123F6
:1035B000009364231A462946584606F08DF9294699
:1035C000584606F068F914A95846ADF8505006F070
:1035D000B1FA3F49584606F04CF84146584606F0C5
:1035E00076F85946304606F013FB322300930D98C7
:1035F000F0234FF487722946FFF72AFD364BC4F8B3
:1036000054374FF0FF33C4F86437344BA4F858579D
:103610001B68C4F86057C4F8685704F2F4772BB9F4
:103620002F4B304A602130481FF052FD2F4B1B8832
:103630001BB92F4B2B4A6121F5E72E4B2946186801
:1036400000F008FA2C4A0346142138460FF016FD04
:103650004FF005030D98C4F86C7714A9ADF85430F9
:10366000CDF850A009F0EAFB0D99304606F0D0FAEB
:1036700002230C98ADF8543014A91927CDF850A0A6
:1036800009F0DCFBB4F97A27B4F978170C98FFF746
:10369000D2FC2A4629460C9800976C23FFF7D8FCE9
:1036A000164BC4F8EC37164B0B98C4F8F037FFF7FD
:1036B00004FC0B9800976C2368221C21FFF7C8FCC0
:1036C00030460B9906F0A4FA204617B0BDE8F08FFB
:1036D000FFF000FF17BDFEFF000094FF982F0120B0
:1036E000684F02086A500208E54F02089C2F01202B
:1036F0002C500208A42F0120B5500208A32A12FF63
:103700000F0FA8FF7047000030B5184D2C68BFF3AD
:103710005B8F14F001048FB024D128461EF093FD76
:1037200000B33F230993124B0893124B07930222D5
:103730000323CDE9053201210423CDE903310F2311
:103740000D49009354221323CDE90B44CDE90144E4
:103750000A480A94FFF73AFB09481FF0D7FC2846AD
:103760001EF07DFD05480FB030BD00BFF8200020E1
:1037700098820208688302083C7C0208FC20002032
:10378000053700087047000030B5164D2C68BFF3B0
:103790005B8F14F001048FB020D128461EF053FD3A
:1037A000E0B13F230993104B0893104B1049114887
:1037B0000A940122CDE906430423CDE903320A230A
:1037C0000093CDE90B44CDE901440594FFF7FEFADF
:1037D00009481FF09BFC28461EF041FD05480FB02C
:1037E00030BD00BF28210020D48202086C8302086B
:1037F000D48002082C210020853700087047000083
:1038000030B5174D2C68BFF35B8F14F001048FB0F7
:1038100022D128461EF017FDF0B13F230993114B2A
:103820000893114B07930123CDE905430493042327
:10383000CDE9024314230D4900931E221823CDE93C
:103840000B440B480A940194FFF7C0FA09481FF093
:103850005DFC28461EF003FD05480FB030BD00BFDB
:1038600058210020D882020870830208E4800208F0
:103870005C210020FD3700087047000030B5164D70
:103880002C68BFF35B8F14F001048FB020D1284661
:103890001EF0D9FCE0B13F230993104B0893104B65
:1038A000104911480A940122CDE906430423CDE9C9
:1038B000033228230093CDE90B44CDE9014405945C
:1038C000FFF784FA09481FF021FC28461EF0C7FCC8
:1038D00005480FB030BD00BF882100206483020876
:1038E00074830208888202088C210020793800083D
:1038F00000207047002070470EB403B503AB0021D1
:1039000053F8042B01930CF087FF02B05DF804EB31
:1039100003B070470CB407B504AB53F8042B019304
:103920000CF07AFF03B05DF804EB02B070470000C2
:10393000436C10B5044673B3038F2BB9184B194A67
:10394000C52119481FF0C4FBC38E00EB43035B8CF9
:103950000BB30EF0EAFD238F012B03D8134B144A4F
:10396000CB21EEE7E28E531C9BB2092B194688BF90
:10397000A3F10A0104EB410140F63F10498C81425A
:1039800009D10A2B04EB420228BF002304EB4303B6
:10399000508C588451842046BDE810400EF0C8BCBD
:1039A0001852020821520208CC520208165302088B
:1039B000245302080EF083BC10B586B002AC84E834
:1039C00006001A460AAB05930193099B0093214612
:1039D000089B0BF029FB06B010BD000038B518BBE2
:1039E000124B13481C681349B4B122682244026088
:1039F000626822440A60A26814440F4B00221A80B5
:103A000000F038F8054600F033F80C4B1C600C4B06
:103A10001D600C4B188007E00B4B03600B4B0B60D9
:103A20000B4B1C68002CE8D138BD00BFC42100201E
:103A3000BC210020B8210020C0210020982F0120A7
:103A4000A02F01209C2F01209C830208788302086C
:103A500044840208044B1B6853F82100034B1B6885
:103A600003EB4000704700BFB8210020BC210020BC
:103A70000920704700487047C821002010B5FFF7A3
:103A8000BFFE064C2060FFF7F9FE6060FFF77CFE8A
:103A9000A060FFF739FEE06010BD00BFC821002024
:103AA00010B5002404600C6014601C6010BD7047E9
:103AB00010B54FF4AE7104461EF0C3FB204610BD96
:103AC00010B50446D0F8580100F030F92046BDE8A2
:103AD00010400BF0A7BF000010B50446FFF700F937
:103AE000014B2360204610BD005402087047043883
:103AF000704770477047704710B5242104461EF088
:103B0000A0FB204610BDA0F10400F5E710B5082188
:103B100004461EF096FB204610BD10B50821044651
:103B20001EF08FFB204610BD70B514460D460646AC
:103B3000218893885288284600F090F871682846BA
:103B4000BDE8704000F0E2B870B514460D46064678
:103B5000218893885288284600F0A8F87168284682
:103B6000BDE8704000F0D2B8084A026010B51C32BF
:103B70004260074A4261074A8261074AC2610024E3
:103B8000064A8460C0E90314026210BD985402081A
:103B9000705402084C540208845402085654020817
:103BA0008B793BB90B886422534340F6FF72B3FB19
:103BB000F2F30B804B88642040F6FF724343B3FB63
:103BC000F2F34B808B884343B3FBF2F38B80704757
:103BD00010B40A468979034651B900F114011961FC
:103BE000186901688C68D96823465DF8044B18474A
:103BF0000129F5D100F11C01F1E710B50446FFF7EA
:103C0000CFFF2046BDE81040FFF7E2BFA0F104005F
:103C1000FFF7F3BF7047000010B5034B0360044685
:103C2000FFF749F9204610BDE054020810B50446DC
:103C3000FFF7F2FF204640F61C011EF002FB204673
:103C400010BD000010B50446FFF744FA014B236095
:103C5000204610BDE0540208FFF72EB92DE9F041CF
:103C6000044604F52C780F460F4816461D461FF0F3
:103C7000F3FB3946404604F5C86705F028FD04F219
:103C80005C543146384605F022FD2946204605F0B1
:103C90001EFD40460CF0EAFE38460CF0E7FE2046DA
:103CA000BDE8F0410CF0E2BEC05402082DE9F0413D
:103CB00004460D461448EDB217461E461FF0CCFBD5
:103CC000003DD4F8703718BF012504F5EE6884F87C
:103CD0009C57D3F88C3004F58F654046984704F51F
:103CE00065743946284605F0F2FC3146204605F059
:103CF000EEFC40460CF0BAFE28460CF0B7FE20461B
:103D0000BDE8F0410CF0B2BEC054020810B5142258
:103D1000044600F2F4700EF050FE04F22470BDE888
:103D200010400CF0A3BE00220260704713B5084B90
:103D3000044600221868694604F03CFB012804D1BF
:103D40002068036869469B68984702B010BD00BFB1
:103D5000F8060020F02070474FF4A070704729202B
:103D6000FDF72AB92820FDF727B908B5FDF7F8F8BF
:103D7000CA20FDF721F9C320FDF702F90820FDF75D
:103D8000FFF85020FDF7FCF8CF20FDF715F90020D3
:103D9000FDF7F6F8C120FDF7F3F83020FDF7F0F855
:103DA000ED20FDF709F96420FDF7EAF80320FDF79F
:103DB000E7F81220FDF7E4F88120FDF7E1F8E820AC
:103DC000FDF7FAF88520FDF7DBF80020FDF7D8F8BD
:103DD0007820FDF7D5F8CB20FDF7EEF83920FDF778
:103DE000CFF82C20FDF7CCF80020FDF7C9F83420DF
:103DF000FDF7C6F80220FDF7C3F8F720FDF7DCF861
:103E00002020FDF7BDF8EA20FDF7D6F80020FDF7E9
:103E1000B7F80020FDF7B4F8B120FDF7CDF8002089
:103E2000FDF7AEF81B20FDF7ABF8B620FDF7C4F8A0
:103E30000A20FDF7A5F8A220FDF7A2F8C020FDF7A3
:103E4000BBF81020FDF79CF8C120FDF7B5F8102055
:103E5000FDF796F8C520FDF7AFF84520FDF790F87F
:103E60001520FDF78DF8C720FDF7A6F89020FDF787
:103E700087F83620FDF7A0F8C820FDF781F8F2207A
:103E8000FDF79AF80020FDF77BF8B020FDF794F8D5
:103E9000C220FDF775F8B620FDF78EF80A20FDF771
:103EA0006FF8A720FDF76CF82720FDF769F80420CC
:103EB000FDF766F82A20FDF77FF80020FDF760F88F
:103EC0000020FDF75DF80020FDF75AF8EF20FDF720
:103ED00057F82B20FDF770F80020FDF751F800206F
:103EE000FDF74EF80120FDF74BF83F20FDF748F8AD
:103EF000F620FDF761F80120FDF742F80020FDF7FC
:103F00003FF80620FDF73CF82C20FDF755F8C820B7
:103F1000FDF7A0F82620FDF74FF80120FDF730F857
:103F2000E020FDF749F80F20FDF72AF82920FDF7DA
:103F300027F82420FDF724F80C20FDF721F80E20A7
:103F4000FDF71EF80920FDF71BF84E20FDF718F8C5
:103F50007820FDF715F83C20FDF712F80920FDF751
:103F60000FF81320FDF70CF80520FDF709F81720CE
:103F7000FDF706F81120FDF703F80020FDF700F823
:103F8000E120FDF719F80020FCF7FAFF1620FCF7F6
:103F9000F7FF1B20FCF7F4FF0420FCF7F1FF1120D2
:103FA000FCF7EEFF0720FCF7EBFF3120FCF7E8FF02
:103FB0003320FCF7E5FF4220FCF7E2FF0520FCF789
:103FC000DFFF0C20FCF7DCFF0A20FCF7D9FF2820DC
:103FD000FCF7D6FF2F20FCF7D3FF0F20FCF7D0FF14
:103FE0001120FCF7E9FFC820FDF734F82920FCF781
:103FF000E3FFBDE808402C20FCF7DEBF08B5FCF766
:10400000AFFF0321D320FCF7F3FF80B208BD10B54A
:10401000C4B2022203212046FCF758FF0A20FCF715
:104020009DFF204600220321FCF750FFBDE8104011
:104030000220FCF793BF38B50446E4B2FCF744FF16
:1040400000212046FCF75AFF012105462046FCF7D7
:1040500055FF40EA052080B238BD10B5C4B24021FA
:104060002046FCF74BFF030607D54C212046FCF702
:1040700045FF003818BF012010BD01224B2120460A
:10408000FCF724FF204600224B21FCF71FFF0020F5
:10409000F2E773B50423C4B20E461546D7210DEBE3
:1040A00003022046FCF744FF019B1BBA1A0DC3F321
:1040B0000B23328020462B8001224B21FCF706FF88
:1040C00000224B212046FCF701FF02B070BD00002A
:1040D00010B50A4A1378984204460DD051788842A8
:1040E0000AD00BB141B90123D454FCF7EDFE2046B0
:1040F000BDE81040FFF78BBF10BD00BFD8210020E6
:1041000010B5C4B209212046FCF7F8FE40F00102C8
:10411000D2B220460921BDE81040FCF7D7BE10B549
:10412000C4B209212046FCF7E9FE092100F0FE0295
:104130002046BDE81040FCF7C9BE38B5C4B20D46F4
:1041400020460A21FCF7DAFE40EA0502D2B22046F8
:104150000A21BDE83840FCF7B9BE10B50446FCF7AB
:10416000B4FE20461F21FFF7E8FF2046BDE81040BF
:10417000FFF7C6BF38B5C4B20D4620460A21FCF78A
:10418000BDFE20EA0502D2B220460A21BDE8384031
:10419000FCF79CBE10B50446FFF7C1FF20461F2167
:1041A000BDE81040FFF7E6BF10B5C0B20C460B21CA
:1041B000FCF7A4FE204010BD1F21FFF7F5BF0A4603
:1041C000C0B20B21FCF782BE1F21FFF7F8BF38B544
:1041D000C4B20D4620461721FCF790FE20EA0502E6
:1041E000D2B220461721BDE83840FCF76FBE70B54B
:1041F000C4B2064604212046FCF780FE042100F0EC
:10420000FB0205462046FCF761FE3046F021FFF731
:10421000DEFF05F0F80220460421FCF757FE492294
:1042200020212046FCF752FE0220FCF797FE204694
:1042300001222121FCF74AFE20469A224121FCF767
:1042400045FE204601224A21FCF740FE204601227D
:104250004B21FCF73BFE204600224B21FCF736FEAB
:10426000204601225621FCF731FE2046012258212A
:10427000FCF72CFE204601224021FCF727FE2046B9
:10428000FF220B21FCF722FEBDE870400220FCF764
:1042900065BE0000054BD3F8882042F47002C3F8D5
:1042A00088204FF000629A60704700BF00ED00E088
:1042B00008B50B4B1A6842F400721A601A6842F48F
:1042C00080621A601A6842F480721A60032000F05B
:1042D0005FFA0020FDF700FBFDF70CF8002008BD99
:1042E000003C0240034A044B11681B780B441360E6
:1042F000704700BFDC210020AC000020014B186893
:10430000704700BFDC21002038B50446FFF7F6FFF8
:10431000631C1CBF054B1B78054618BFE418FFF74C
:10432000EDFF431BA342FAD338BD00BFAC00002011
:1043300038B50446002800F09B80056C25B9FCF7D1
:10434000F9FF656484F83C50236CDB0600F18E8035
:10435000236C23F4885323F0020343F00203236405
:10436000444B5A6822F440325A605A6861680A43E2
:104370005A60236821695A6822F480725A605A6828
:1043800042EA01225A605A68A16822F040725A60DB
:104390005A680A435A609A68E16822F400629A6097
:1043A0009A680A439A603449A26A8A4252D099684C
:1043B00021F07061996099680A439A609A68E16A8D
:1043C00022F040529A609A680A439A609A6822F0F2
:1043D00002029A609A68217E42EA41029A6094F849
:1043E0002020002A3ED05A68616A42F400625A6076
:1043F0005A6822F460425A605A68013942EA4132EE
:104400005A60DA6AE16922F47002DA62DA6A013922
:1044100042EA0152DA629A6822F400729A609A685B
:1044200094F8301042EA41229A609A68616922F455
:1044300080629A609A68002042EA81229A606064F1
:10444000236C23F0030343F001032364002384F867
:104450003C3038BD9A6822F070629A609A6822F007
:104460004052B2E75A6822F40062C9E70120EDE742
:104470000120EEE7002301400100000F37B513468D
:104480000022019290F83C20012A044600F0888026
:104490000568012280F83C20AA68D00752D5AA6896
:1044A000D20562D4AA68D00771D5206C20F4E060F0
:1044B00020F0010040F4807020646A68520541BF1A
:1044C000206C20F4405040F480502064226CA06B9B
:1044D00012F480521CBF626C22F006026264002259
:1044E00084F83C202F4AC2632F4A02642F4AC264D8
:1044F0006FF022022A606A6842F080626A60AA68ED
:1045000042F48072AA600A4605F14C0100F036FAC6
:10451000274A2849536813F01F0F236834D18B4270
:1045200007D001F580718B4224D1526812F01F0F21
:1045300023D19A6812F0405F1FD19A6842F08042FE
:104540009A601AE0AA6842F00102AA601A4A10684A
:104550001A4AB0FBF2F000EB40000190019A002AE9
:104560009DD0019A013A0192F8E7AA6822F480727C
:10457000AA6097E712498B4202D0002003B030BDF9
:10458000526812F0100FD3E78B42F6D1D1E7236CBB
:1045900043F010032364636C43F001036364ECE7AE
:1045A0000220EBE7EB450008C9450008D5450008A7
:1045B0000023014000200140A800002040420F00DD
:1045C000002201407047704708B5806BFFF7FBFF82
:1045D00008BD7047806B08B540230364436C43F00B
:1045E00004034364FFF7F5FF08BD836B1A6C12F0F8
:1045F000500F10B51A6C23D142F400721A641A6875
:10460000916811F0405F17D1197EA9B9D16A11F4F0
:10461000700F02D0916848050ED4516821F0200136
:1046200051601A6C22F480721A641A6CD1045EBF55
:104630001A6C42F001021A641846FFF7C3FF10BD5E
:10464000D20603D51846FFF7C4FFF8E79B6BBDE819
:104650001040DB6C18470000F7B50023019390F879
:104660003C30012B054600F08680012380F83C3069
:1046700008682B688E68092884B233D904EB440299
:10468000DF681E3A4FF0070C0CFA02FC27EA0C0711
:10469000DF60DF6806FA02F23A43DA604968062909
:1046A00001EB81022DD8596B053A1F26964021EA6D
:1046B00006015963596B04FA02F20A435A632F4AFE
:1046C00093420AD1122837D12D4B5A6822F40002A6
:1046D0005A605A6842F480025A60002085F83C0013
:1046E00003B0F0BD1A6900EB400C072707FA0CF77E
:1046F00022EA07021A611A6906FA0CF616431E61CD
:10470000CCE70C294FF01F010BD81E6B233A9140C8
:1047100026EA01011963196B04FA02F20A431A63CB
:10472000CDE7DE6A413A914026EA0101D962D96AB1
:1047300094400C43DC62C2E7124B984201D011282E
:10474000CBD10F4B5A6822F480025A605A6842F467
:1047500000025A600B4B9842BFD10B4B0B4A1B68AF
:10476000B3FBF2F30A2253430193019B002BB4D015
:10477000019B013BF8E70220B2E700BF00200140A7
:104780000023014012000010A800002040420F004A
:104790000749CA6822F4E0620302120403F4E063EA
:1047A000120C134343F0BF6343F40033CB607047F4
:1047B00000ED00E0164B30B5DC68C4F30224C4F110
:1047C0000703251D042B28BF0423062D4FF0FF35BA
:1047D0008CBF033C002405FA03F321EA0303A54040
:1047E00022EA0502A340002843EA0203ACBF00F11D
:1047F0006040084A4FEA0313B8BF00F00F00DBB275
:10480000AABF00F56140135480F8003330BD00BFEB
:1048100000ED00E014ED00E0002807DB044A410948
:10482000012300F01F00834042F82130704700BF91
:1048300000E100E010B5044650B1437903F0FF02F7
:1048400013B90271FCF7DCFD01236371002010BD78
:104850000120FCE7036810B5084C0246D9B21039B4
:104860001820B1FBF0F0205CD06523F47F7020F0BD
:1048700003005F2988BF0430906510BD24550208ED
:1048800070B50446FFF73AFD0546002C60D00223C0
:1048900084F835302268002384F83430136823F01C
:1048A0000103136022681368D8072ED413683248B6
:1048B000A1691840D4E901352B43E5682B432569EC
:1048C0002B4365692B43E5690B432B43256A2B4337
:1048D0000343606A042802BFD4E90B5635432B43D7
:1048E00013605369042823F0070343EA000335D11A
:1048F000A06AE56A03438DB391B9012820D030F056
:1049000002012BD1E90129D51DE0FFF7F7FC401B7F
:104910000528C7D920230320636584F8350070BDBE
:10492000B1F5005F16D1032818D801A151F820F085
:10493000474900080549000847490008414900085F
:10494000B5F1C07F0AD140236365012384F8353077
:104950000120E4E70228F6D90328D3D0536120468A
:10496000FFF778FFE26D3F2393408360002001232F
:10497000606584F83530D2E73F8010F070B590F86C
:104980003440866D012C30D0012480F8344090F8FA
:104990003540012C4FF0000425D1022580F8355018
:1049A00044650468256825F4802525606360836874
:1049B000402B0EBFA260A160E260C26D08BFE16043
:1049C0003F239340B360236843F016032360036CD6
:1049D0001BB1236843F008032360236843F00103FD
:1049E0002360002070BD80F834400220FAE7000008
:1049F000F7B5002301935C4B856D1F68C36D2E686E
:104A000008229A40324204460CD0016808684007E8
:104A100008D5086820F004000860AA60626D42F0C2
:104A20000102626501229A40324208D02168496938
:104A3000090641BFAA60626D42F00202626504226B
:104A40009A40324208D021680968880741BFAA60AD
:104A5000626D42F00402626510229A40324210D028
:104A60002368196809070CD5AA601A68500337D55E
:104A70001B68190301D4236C00E0A36C0BB1204622
:104A80009847E16D20228A4032423AD02368186864
:104A9000C60636D5AA6094F83520052A1A6827D1AB
:104AA00022F016021A605A6922F080025A61226CC2
:104AB0000AB9A26C1AB11A6822F008021A603F23E0
:104AC0008B40AB60012384F83530002384F8343008
:104AD000236D002B45D0204603B0BDE8F0401847B9
:104AE0001A68D2055EBF1A6822F008021A60C2E78F
:104AF000500327D51B68190331D4636C0BB12046D2
:104B00009847636D6BB3636DDA0719D522684FF46C
:104B10001653B7FBF3F7052384F83530136823F0F9
:104B200001031360019B0133BB42019302D8136858
:104B3000DB07F7D4012384F83530002384F83430C0
:104B4000E36CC6E71A6812F4807208D1196821F084
:104B500010011960012384F8353084F83420E36BA8
:104B6000CCE703B0F0BD00BFA800002010B504469C
:104B700030B390F8393003F0FF021BB980F83820C9
:104B8000FCF756FC22686168022384F83930136808
:104B900023F440330B431360536BA16823F00703E6
:104BA0000B435363136CE16823F47F5323F03F03FB
:104BB0000B43136400200123E06384F8393010BDF7
:104BC0000120FCE770477047036870B55E681D6898
:104BD000F207044614D5E90512D51A6822F480724A
:104BE0001A60C26B42F00102C26301229A60042380
:104BF00080F83930002380F83830436903B1984792
:104C0000B20616D5AB0414D523681A6822F40052F4
:104C10001A6020229A60E36B43F00203E3630423EB
:104C200084F83930002384F8383063690BB12046AA
:104C30009847300716D5290514D523681A6822F439
:104C400000621A6008229A60E36B43F00403E36396
:104C5000042384F83930002384F8383063690BB1B9
:104C60002046984772070BD56B0509D523681A684B
:104C700022F480621A6004229A602046FFF7A2FFA5
:104C8000B00714D5A90512D523681A6822F400725A
:104C90001A6002229A60E36BE363012384F83930DF
:104CA000002384F8383023690BB120469847F20678
:104CB00013D5EB0411D523681A6822F480521A60C8
:104CC00010229A60E36BE363012384F839300023F8
:104CD00084F838302046FFF776FF70BDF0B590F8C5
:104CE0003820012A03464FF002002BD0012283F81E
:104CF000382083F8390003EB0112D2E90740556AE6
:104D0000174F44EA0040093C012C9CBF05F07F424C
:104D100010434FEA01161A6888BF40EA056091B94E
:104D2000516A394001435162012C9969916103D85C
:104D3000596A21F07F4191620122002083F83920D5
:104D400083F83800F0BDD16939400143D161991928
:104D5000012C896911619CBF25F07F451562EBE745
:104D6000F0FFFC002DE9F74FDFF8BC916C4A0023FF
:104D70000D6801249C4004EA0506AC4340F0B7806E
:104D80004D68032705F003044FEA430807FA08FCBF
:104D9000671E012F6FEA0C0C34D8876807EA0C0EE7
:104DA000CF6807FA08F747EA0E078760476827EADF
:104DB000060EC5F300179F4047EA0E074760C76815
:104DC00007EA0C0E8F6807FA08F747EA0E07022C6D
:104DD000C76019D14FEAD30A00EB8A0A03F0070B28
:104DE000DAF820704FEA8B0B4FF00F0E0EFA0BFE25
:104DF00027EA0E0E0F6907FA0BF747EA0E07CAF803
:104E0000207001E0032CDAD1076804FA08F407EAFD
:104E10000C073C4315F4403F046068D00024019423
:104E2000D9F8444044F48044C9F84440D9F8444097
:104E300023F0030707F1804704F4804407F59C370B
:104E4000019403F0030C019CD7F808E04FEA8C0CA6
:104E50000F2404FA0CF42EEA040E324CA0424DD07A
:104E600004F58064A0424BD004F58064A04249D090
:104E700004F58064A04247D004F58064A04245D088
:104E800004F58064A04243D004F58064A04241D080
:104E900004F58064A0423FD004F58064A0423DD078
:104EA00004F58064A04214BF0A24092404FA0CF417
:104EB00044EA0E04BC609468F74315F4801F0CBFED
:104EC0003C4034439460D46815F4001F0CBF3C4050
:104ED0003443D460546815F4003F0CBF3C40344365
:104EE00054601468ED0354BF3C40344314600133F4
:104EF000102B7FF43DAF03B0BDE8F08F0024D5E761
:104F00000124D3E70224D1E70324CFE70424CDE72B
:104F10000524CBE70624C9E70724C7E70824C5E72B
:104F2000003C014000000240003802400369194281
:104F300014BF0120002070470AB181617047090445
:104F4000FBE7436901EA030221EA030141EA024166
:104F500081617047044A5169014208B502D050612D
:104F6000FBF7D0FB08BD00BF003C014001684B6966
:104F700013F480634FF0000210D06FF480634B6134
:104F80002023026380F83D3080F83E20036C80F8D7
:104F90003C2043F004030364012070471846704727
:104FA0002DE9F84606460F4691461D464FEA114A3E
:104FB0003368BAF1010F0CBF5C699C6927EA0404ED
:104FC000A4B2B4FA84F46409A14501D0002025E01C
:104FD0006A1CEED0FFF792F9089BC01AA84201D8CC
:104FE000002DE5D13368BAF1010F0CBF5B699B69F5
:104FF00027EA03039BB2B3FA83F35B099945D7D140
:1050000000232022336386F83D2086F83E30326C40
:1050100086F83C3042F0200232640120BDE8F88678
:105020002DE9F04104460F46164698462568686902
:1050300027EA000080B2C0B16B695A0517D52B680A
:1050400043F400732B606FF480636B6120220023B4
:10505000236384F83D2084F83E30236C43F004033E
:105060002364002384F83C300120BDE8F081731CE8
:10507000DDD0FFF743F9A0EB0800B04201D8002EC5
:10508000D4D123685A6927EA020292B2002ACDD00D
:1050900000232022236384F83D2084F83E30236CD3
:1050A0001343DDE770B504460D46164623685B6979
:1050B0001B0601D500201EE02046FFF757FFC8B9A8
:1050C0006A1CF3D0FFF71AF9801BA84201D8002D03
:1050D000ECD123685B6913F08003E7D120222363BE
:1050E00084F83D2084F83E30226C84F83C3042F055
:1050F00020022264012070BD2DE9F04315460268AC
:1051000085B0DDE90C789946136843F48073136029
:105110000E463B46CDF8008000224FF001110446B8
:10512000FFF73EFF236838B11B68DB0502D54FF45B
:1051300000732364032620E006F0FE061E611A4970
:1051400043463A462046FFF76BFFA8B92368039011
:105150005A6903929B690393424639462046039B52
:10516000FFF7A0FF064660B1236C042B01BF226845
:10517000136843F4007313600126304605B0BDE8A0
:10518000F083B9F1010F236802D1EDB21D61F4E79C
:105190002A0A1A61394642462046FFF783FF002853
:1051A000E2D12368F1E700BF020001002DE9FF47CB
:1051B0009A46036815461A6842F480621A601A68B3
:1051C000DDE90C7842F480721A600E463B46CDF859
:1051D000008000224FF001110446FFF7E1FE236832
:1051E00038B11B68DB0544BF4FF400732364032010
:1051F00021E05FFA86F906F0FE061E612B49434660
:105200003A462046FFF70CFFA0B9236803905A697D
:1052100003929B690393424639462046039BFFF75E
:1052200041FF58B1236C042B01BF2268136843F47B
:1052300000731360012004B0BDE8F087BAF1010FDC
:1052400023681AD1EDB242461D6139462046FFF768
:1052500029FF02460028E5D121680B6843F48073DA
:105260000B602046CDF800803B464FF00111FFF760
:1052700097FE226860B11368B4E72A0A1A613946BA
:1052800042462046FFF70EFF0028CBD12368D9E71E
:1052900049F001031361054943463A462046FFF7AA
:1052A000BFFE003818BF0120C5E700BF02000100A3
:1052B00070B504460D46164623685B695B0701D549
:1052C00000201EE02046FFF751FEC8B96A1CF3D04B
:1052D000FFF714F8801BA84201D8002DECD12368F9
:1052E0005B6913F00403E7D12022236384F83D2097
:1052F00084F83E30226C84F83C3042F02002226474
:10530000012070BD70B504460D46164621684B69F4
:1053100013F0400301D0002011E04A69D2060FD5F6
:105320006FF010024A612022236384F83D2084F844
:105330003E30236C2364002384F83C30012070BD90
:10534000FEF7DCFF801BA84201D8002DDED12368C8
:105350005B6913F04003D9D12022236384F83D20F8
:1053600084F83E30236C1343E4E7000070B5044634
:1053700008B9012070BD90F83D3003F0FF021BB961
:1053800080F83C20FCF776F8242384F83D3023682D
:105390001A6822F001021A601A6842F400421A6088
:1053A0001A6822F400421A6000F0B2FE3F4B6568B2
:1053B0009D4294BF3E4B3F4B98428CBF002301233C
:1053C000002BD6D12268394E51683B4BB0FBF3F32A
:1053D00021F03F011943B542516088BF4FF49676E2
:1053E000116A88BF734321F03F0184BF4FF47A767E
:1053F000B3FBF6F301330B431362D169431E2B4811
:1054000021F44F41854221F0FF0132D86D0040F672
:10541000FC70B3FBF5F30133034242D0C3F30B033B
:105420001943D161D4E907301168034321F0C00169
:105430000B4313609168D4E9030321F40341034350
:1054400021F0FF010B439360D4E90530D168034399
:1054500021F0FF010B43D360136843F00103136095
:1054600000202023206484F83D30206384F83E002F
:1054700080E7A06850B905EB4505B3FBF5F30133B0
:10548000C3F30B037BB143F40043C9E7192068431E
:10549000B3FBF0F30133C3F30B0323B143F44043F5
:1054A000BEE70423BCE70123BAE700BFA0860100E2
:1054B0007F841E00FF083D0040420F002DE9F743A6
:1054C000044699460C9E0F469046FEF717FF94F847
:1054D0003D30202B054603D0022003B0BDE8F08309
:1054E00000903C49192301222046FFF759FD00286E
:1054F000F2D194F83C30012BEED02068012384F8DF
:105500003C300368D9075EBF036843F001030360C2
:10551000036823F400630360212384F83D304023B3
:1055200084F83E30002323640A9B6362BDF82C306C
:105530006385638D2385284BE3624246CDE9006590
:105540004B4639462046FFF7D7FD00282AD00120D8
:10555000C3E7FFF7A7FD40B1236C042B01BF22680E
:10556000136843F400731360F1E7636A27681A460F
:1055700012F8011B39616262628D218D013A92B28B
:1055800062857A69481E80B2520720850AD548B1E3
:105590005A783A6102336362638D013B02399BB2F0
:1055A00021856385238D2A4631462046002BD0D1A4
:1055B000FFF77EFE0028CFD12268136843F4007302
:1055C0001360202384F83D3084F83C0084F83E00CA
:1055D00083E700BF020010000000FFFF2DE9F04349
:1055E000044687B09946109F0D469046FEF786FE0A
:1055F00094F83D30202B064604D00225284607B0FB
:10560000BDE8F08300907A49192301222046FFF774
:10561000C7FC0028F1D194F83C30012BEDD0206874
:10562000012384F83C300368DB075EBF036843F066
:1056300001030360036823F400630360222384F8FA
:105640003D30402384F83E30002323640E9B636288
:10565000BDF83C306385638D2385664BE362294644
:10566000CDE900764B4642462046FFF79FFD0546B2
:1056700008B10125C2E7228D2368B2B902905A69A8
:1056800002929A690292029A1A6842F400721A60AF
:10569000DFF86481238D002B2CD1202284F83D205B
:1056A00084F83C3084F83E30A8E7012A0AD11A6811
:1056B00022F480621A6003905A6903929A690392F5
:1056C000039AE1E7022A0ED11A6822F480621A6076
:1056D0001A6842F400621A6004905A6904929B6945
:1056E0000493049BD4E705905A6905929B6905933E
:1056F000059BCDE7032B56D8012B15D132463946F1
:105700002046FFF7FFFD0028B3D123681A69636ABA
:105710001A70636A01336362238D013B2385638DB5
:10572000013B9BB26385B5E7022B00963B464FF0E9
:1057300000024146204619D1FFF732FC002898D1DB
:1057400023681A6842F400721A601A69636A1A7050
:10575000626A531C6362238D013B2385638D013B89
:105760009BB2638523681B695370D2E7FFF718FC6F
:10577000024600287FF47DAF2368196821F4806118
:1057800019601969636A1970636A01336362238D52
:10579000013B2385638D013B9BB2638541460096A7
:1057A0003B462046C8E7324639462046FFF7AAFD69
:1057B00000287FF45EAF23681A69636A1A70628DED
:1057C000616A013A92B24B1C628522686362238D42
:1057D0005069013B9BB2400723857FF55BAF032BEC
:1057E00002BF136823F48063136013694B7090E762
:1057F000020010000000FFFF0400010010B590F847
:105800003D30202BDCB216D1242380F83D300368D4
:105810001A6822F001021A605A6A22F010025A62D3
:105820005A6A114359621A6842F001021A6080F8FC
:105830003D40002010BD0220FCE730B590F83D301F
:10584000202BDCB216D10268242380F83D30136887
:1058500023F001031360556A4FF6F0732B400B439E
:105860009BB25362136843F00103136080F83D401C
:10587000002030BD0220FCE70068D1F800C0D20152
:10588000843283182DE9F043C6685D684C68D1F80E
:10589000189005F470455D60C5680CF10107C5F30B
:1058A0000B45C6F30B463D44264445EA06455D607C
:1058B000C668CD68C6F30A062E449D6805F4704597
:1058C0009D60C7688D68C7F30A0701353D4445EA06
:1058D00006459D601D690E6925F007051D614FF0A5
:1058E000000E1E619D6991F8327091F83180C3F805
:1058F00018E091F8305045EA096545EA082545EA7F
:1059000007459D615D6925F0FF055D614D695D613C
:10591000DD6925F4E06525F00705DD61D1E907576C
:105920003D43DD619D6A4D6AC3F828E09D621EB368
:10593000012E23D0B51E022D22D9072E14BF01251A
:105940000225DE6A06F0E026DE62A4EB0C048E6A15
:10595000C96A6C436E43033444EA0644DC621C6B40
:1059600024F4FF6424F007041C631963835843F094
:1059700001038350BDE8F0830425E2E70325E0E757
:105980000225DEE738B50446002863D090F8A13040
:1059900003F0FF021BB980F8A020FBF7C7FD02232C
:1059A00084F8A13023689A6922F070429A61D4E9A0
:1059B00001200243E06899690243206902430A43D7
:1059C0009A619A68244960690A409A609A6842EA32
:1059D0000042A06902439A60DA68E0690A40DA602E
:1059E000DA6842EA0042206A0243DA601A69606AB1
:1059F0000A401A611A6942EA0042A06A02431A6127
:105A00005A690A405A615A69E16A42EA0142216BC5
:105A10000A435A61DA6A94F8350094F8361002F0B5
:105A20007F42DA62DD6A94F834202A4342EA002297
:105A300042EA0142DA625A6B42F006025A639A69FC
:105A400042F001029A6100200123C4F8A40084F806
:105A5000A13038BD0120FCE700F800F07047704726
:105A6000036870B59E6B5D6B7207044614D56907B9
:105A700012D55A6B22F004025A630422DA63D0F87A
:105A8000A43043F00103C0F8A430002380F8A12023
:105A900080F8A030FFF7E2FFB20716D5AB0714D5A8
:105AA00023685A6B22F002025A630222DA63D4F8A6
:105AB000A4301343C4F8A430042384F8A130002395
:105AC00084F8A0302046FFF7C9FFF00710D5E9079A
:105AD0000ED523685A6B22F001025A630122DA6361
